:020000040800F2
:10000000700600206102000849030008410300084F
:10001000450300081D0300086D03000800000000F0
:100020000000000000000000000000005103000874
:1000300021030008000000004D03000855030008DC
:100040007B0200087B0200087B0200087B0200089C
:100050007B0200087B0200087B0200087B0200088C
:100060007B0200087B0200087B0200087B0200087C
:100070007B0200087B0200087B0200087B0200086C
:100080007B0200087B0200087B02000800000000E1
:100090000000000000000000000000007B020008DB
:1000A0007B0200087B0200087B0200087B0200083C
:1000B0007B0200087B0200087B0200087B0200082C
:1000C0007B0200087B0200087B0200087B0200081C
:1000D0007B0200087B0200087B0200080000000091
:1000E0007B0200087B0200087B0200080000000081
:1000F0000000000000000000000000007B0200087B
:10010000000000007B0200087B0200087B02000860
:1001100000000000000000000000000000000000DF
:100120007B0200087B0200087B0200087B020008BB
:100130007B0200080000000000000000000000003A
:100140000000000000000000000000007B0200082A
:100150007B0200087B0200087B0200087B0200088B
:100160007B0200087B020008000000000000000085
:10017000000000000000000000000000000000007F
:10018000000000007B0200080000000000000000EA
:100190007B02000800F002F800F052F814A696E87E
:1001A000000CB244B344DA4501D100F049F8BAE892
:1001B0000F000FA696E83000A5EB040504EB060738
:1001C000AAEB0704A7F101074FEA15154FEA34140B
:1001D000A4F10104AC4201D300F032F813F0010F96
:1001E00018BFFB1A43F0010300F001F8DBE71847E2
:1001F0006802000088020000103A24BF78C878C165
:10020000FAD8520724BF30C830C144BF04680C601C
:1002100070470000704700000023002400250026DE
:10022000103A28BF78C1FBD8520728BF30C148BF59
:100230000B6070471FB500F001F91FBD10B510BD70
:1002400000F031F81146FFF7F5FF00F091F800F0EB
:100250004FF803B4FFF7F2FF03BC00F057F80000BB
:100260000948804709480047FEE7FEE7FEE7FEE74A
:10027000FEE7FEE7FEE7FEE7FEE7FEE70448054986
:10028000054A064B70470000590300089501000815
:100290007000002070060020700200207002002014
:1002A000704770477047754600F02CF8AE46050061
:1002B0006946534620F00700854618B020B5FFF781
:1002C000DDFFBDE820404FF000064FF000074FF083
:1002D00000084FF0000BAC46ACE8C009ACE8C00920
:1002E000ACE8C009ACE8C00921F007018D467047B1
:1002F00010B50446AFF300802046BDE81040FFF77C
:10030000A8BF0000004870470800002001491820DD
:10031000ABBEFEE72600020070470000FEE70000CB
:100320007047000040F2000040F26801C2F2000095
:10033000C2F2000100780A681044086070470000AB
:10034000FEE70000FEE70000FEE700007047000047
:1003500070470000FFF7E6BF4EF68850CEF200006F
:10036000016841F47001016070470000FEE7000081
:1003700043F63000C4F202000168002441F001019C
:10038000C4F202040160206840F4806020602068AC
:1003900020F40060206000F01FF800BF00F008F8B3
:1003A0006169312821F0200108BF20316161F5E742
:1003B00044F20040C4F200000168890609D40168D3
:1003C00089065CBF01685FEA816102D40168890621
:1003D000F2D54068C0B2704743F63000C4F2020064
:1003E000016841F0010101600021C4F202010A68C4
:1003F00022F010020A600A6842F0A0020A600A6A4B
:1004000042F4EE420A620A6A22F400620A62016958
:1004100041F40031016144F20C40C4F2000050F894
:10042000041C41F08B0140F8041C082101600421E8
:100430000160016841F4005101607047F1EE100A5B
:100440004FF6FF71C0F2C03120EA010040F0407069
:10045000E1EE100A70470000780400080000002058
:1004600008000000F80100088004000808000020CF
:1004700068060000180200080100000010000000DB
:040000050800019559
:00000001FF
